:020000040800F2
:100000000000052035330008392E0008412E000875
:10001000492E0008512E0008592E0008000000004B
:10002000000000000000000000000000612E000839
:100030006F2E0008000000007D2E00088B2E0008A7
:1000400085330008853300088533000885330008B0
:1000500085330008853300088533000885330008A0
:100060008533000885330008853300088533000890
:10007000992E000885330008853300088533000871
:100080008533000885330008853300088533000870
:10009000853300088533000885330008AD2E00083D
:1000A00085330008BD2E000885330008853300081D
:1000B000D12E0008853300088533000885330008F9
:1000C0008533000885330008853300088533000830
:1000D0008533000885330008853300088533000820
:1000E000E52E0008853300088533000885330008B5
:1000F0008533000885330008853300088533000800
:1001000085330008853300088533000885330008EF
:1001100085330008853300088533000885330008DF
:100120000D2F00088533000885330008853300084B
:1001300085330008853300088533000885330008BF
:1001400085330008853300088533000885330008AF
:10015000853300088533000885330008853300089F
:10016000853300088533000885330008853300088F
:10017000853300088533000885330008000000003F
:10018000853300088533000885330008853300086F
:10019000853300088533000885330008853300085F
:1001A000853300088533000885330008853300084F
:1001B000853300088533000885330008853300083F
:0801C0008533000885330008B7
:1001D00010B5054C237833B9044B13B10448AFF381
:1001E00000800123237010BD2C02002000000000BD
:1001F000F0A6000808B5034B1BB103490348AFF351
:10020000008008BD0000000030020020F0A60008B9
:1002100001F0FF01102A2BDB10F0070F08D010F8B7
:10022000013B013A8B422DD010F0070F42B3F6D1BB
:10023000F0B441EA012141EA014122F007047FF0D4
:1002400000070023F0E80256083C85EA010586EA2B
:10025000010685FA47F5A3FA87F586FA47F6A5FA67
:1002600087F68EB9EED1F0BC01F0FF0102F0070273
:1002700032B110F8013B013A83EA010313B1F8D11E
:100280000020704701387047002D06BF35460338FF
:10029000073815F0010F07D1013015F4807F02BF38
:1002A000013015F4C03F0130F0BC0138704700BF89
:1002B000034613F8012B002AFBD1181A01387047A6
:1002C00081F0004102E000BF83F0004330B54FEA07
:1002D00041044FEA430594EA050F08BF90EA020F74
:1002E0001FBF54EA000C55EA020C7FEA645C7FEA07
:1002F000655C00F0E2804FEA5454D4EB5555B8BF2A
:100300006D420CDD2C4480EA020281EA030382EA9A
:10031000000083EA010180EA020281EA0303362D2C
:1003200088BF30BD11F0004F4FEA01314FF4801CFF
:100330004CEA113102D0404261EB410113F0004F11
:100340004FEA03334CEA133302D0524263EB4303C8
:1003500094EA050F00F0A780A4F10104D5F1200E66
:100360000DDB02FA0EFC22FA05F2801841F10001C1
:1003700003FA0EF2801843FA05F359410EE0A5F195
:1003800020050EF1200E012A03FA0EFC28BF4CF0C6
:10039000020C43FA05F3C01851EBE37101F000457C
:1003A00007D54FF0000EDCF1000C7EEB00006EEB89
:1003B0000101B1F5801F1BD3B1F5001F0CD3490813
:1003C0005FEA30004FEA3C0C04F101044FEA44526A
:1003D00012F5800F80F09A80BCF1004F08BF5FEAF1
:1003E000500C50F1000041EB045141EA050130BDD1
:1003F0005FEA4C0C404141EB0101013C28BFB1F5E3
:10040000801FE9D291F0000F04BF01460020B1FA2D
:1004100081F308BF2033A3F10B03B3F120020CDA00
:100420000C3208DD02F1140CC2F10C0201FA0CF0DE
:1004300021FA02F10CE002F11402D8BFC2F1200C43
:1004400001FA02F120FA0CFCDCBF41EA0C019040F9
:10045000E41AA2BF01EB0451294330BD6FEA040442
:100460001F3C1CDA0C340EDC04F11404C4F120022D
:1004700020FA04F001FA02F340EA030021FA04F33F
:1004800045EA030130BDC4F10C04C4F1200220FA96
:1004900002F001FA04F340EA0300294630BD21FAD4
:1004A00004F0294630BD94F0000F83F4801306BF9A
:1004B00081F480110134013D4EE77FEA645C18BF8E
:1004C0007FEA655C29D094EA050F08BF90EA020F25
:1004D00005D054EA000C04BF1946104630BD91EA1D
:1004E000030F1EBF0021002030BD5FEA545C05D120
:1004F0004000494128BF41F0004130BD14F580045F
:100500003CBF01F5801130BD01F0004545F0FE41D2
:1005100041F470014FF0000030BD7FEA645C1ABF07
:10052000194610467FEA655C1CBF0B46024650EA3E
:10053000013406BF52EA033591EA030F41F400216A
:1005400030BD00BF90F0000F04BF0021704730B5F0
:100550004FF4806404F132044FF000054FF00001C5
:1005600050E700BF90F0000F04BF0021704730B586
:100570004FF4806404F1320410F0004548BF40425B
:100580004FF000013EE700BF42004FEAE2014FEAB0
:1005900031014FEA02701FBF12F07F4393F07F4F8B
:1005A00081F06051704732F07F4208BF704793F08E
:1005B0007F4F04BF41F40021704730B54FF46074A1
:1005C00001F0004521F000411CE700BF50EA0102A4
:1005D00008BF704730B54FF000050AE050EA01024D
:1005E00008BF704730B511F0004502D5404261EBBD
:1005F00041014FF4806404F132045FEA915C3FF4FE
:10060000D8AE4FF003025FEADC0C18BF03325FEA9A
:10061000DC0C18BF033202EBDC02C2F1200300FA4B
:1006200003FC20FA02F001FA03FE40EA0E0021FA70
:1006300002F11444BDE600BF70B54FF0FF0C4CF45E
:10064000E06C1CEA11541DBF1CEA135594EA0C0F10
:1006500095EA0C0F00F0DEF82C4481EA030621EA4B
:100660004C5123EA4C5350EA013518BF52EA033586
:1006700041F4801143F4801338D0A0FB02CE4FF038
:100680000005E1FB02E506F00042E0FB03E54FF068
:100690000006E1FB03569CF0000F18BF4EF0010E60
:1006A000A4F1FF04B6F5007F64F5407404D25FEA5C
:1006B0004E0E6D4146EB060642EAC62141EA55510F
:1006C0004FEAC52040EA5E504FEACE2EB4F1FD0C51
:1006D00088BFBCF5E06F1ED8BEF1004F08BF5FEACF
:1006E000500E50F1000041EB045170BD06F0004681
:1006F00046EA010140EA020081EA0301B4EB5C042E
:10070000C2BFD4EB0C0541EA045170BD41F4801125
:100710004FF0000E013C00F3AB8014F1360FDEBF4A
:10072000002001F0004170BDC4F10004203C35DA26
:100730000C341BDC04F11404C4F1200500FA05F3A9
:1007400020FA04F001FA05F240EA020001F000424A
:1007500021F0004110EBD37021FA04F642EB0601C0
:100760005EEA430E08BF20EAD37070BDC4F10C04EA
:10077000C4F1200500FA04F320FA05F001FA04F2AE
:1007800040EA020001F0004110EBD37041F100019A
:100790005EEA430E08BF20EAD37070BDC4F12005A5
:1007A00000FA05F24EEA020E20FA04F301FA05F20D
:1007B00043EA020321FA04F001F0004121FA04F2B5
:1007C00020EA020000EBD3705EEA430E08BF20EA85
:1007D000D37070BD94F0000F0FD101F000464000BF
:1007E00041EB010111F4801F08BF013CF7D041EA41
:1007F000060195F0000F18BF704703F00046520045
:1008000043EB030313F4801F08BF013DF7D043EA15
:100810000603704794EA0C0F0CEA135518BF95EACB
:100820000C0F0CD050EA410618BF52EA4306D1D152
:1008300081EA030101F000414FF0000070BD50EA71
:10084000410606BF1046194652EA430619D094EAFB
:100850000C0F02D150EA013613D195EA0C0F05D1E5
:1008600052EA03361CBF104619460AD181EA030139
:1008700001F0004141F0FE4141F470014FF00000F1
:1008800070BD41F0FE4141F4780170BD70B54FF08C
:10089000FF0C4CF4E06C1CEA11541DBF1CEA13550C
:1008A00094EA0C0F95EA0C0F00F0A7F8A4EB0504EE
:1008B00081EA030E52EA03354FEA013100F08880E5
:1008C0004FEA03334FF0805545EA131343EA1263AE
:1008D0004FEA022245EA111545EA10654FEA002663
:1008E0000EF000419D4208BF964244F1FD0404F51C
:1008F000407402D25B084FEA3202B61A65EB030578
:100900005B084FEA32024FF480104FF4002CB6EB34
:10091000020E75EB030E22BFB61A754640EA0C00B4
:100920005B084FEA3202B6EB020E75EB030E22BFF4
:10093000B61A754640EA5C005B084FEA3202B6EB35
:10094000020E75EB030E22BFB61A754640EA9C00F4
:100950005B084FEA3202B6EB020E75EB030E22BFC4
:10096000B61A754640EADC0055EA060E18D04FEA82
:10097000051545EA16754FEA06164FEAC30343EA22
:1009800052734FEAC2025FEA1C1CC0D111F4801FEF
:100990000BD141EA00014FF000004FF0004CB6E7E8
:1009A00011F4801F04BF01430020B4F1FD0C88BF87
:1009B000BCF5E06F3FF6AFAEB5EB030C04BFB6EB92
:1009C000020C5FEA500C50F1000041EB045170BD85
:1009D0000EF0004E4EEA113114EB5C04C2BFD4EBB2
:1009E0000C0541EA045170BD41F480114FF0000E36
:1009F000013C90E645EA060E8DE60CEA135594EAB2
:100A00000C0F08BF95EA0C0F3FF43BAF94EA0C0FB4
:100A10000AD150EA01347FF434AF95EA0C0F7FF429
:100A200025AF104619462CE795EA0C0F06D152EA7D
:100A300003353FF4FDAE1046194622E750EA410661
:100A400018BF52EA43067FF4C5AE50EA41047FF472
:100A50000DAF52EA43057FF4EBAE12E74FF0FF3CD7
:100A600006E000BF4FF0010C02E000BF4FF0010CA8
:100A70004DF804CD4FEA410C7FEA6C5C4FEA430C21
:100A800018BF7FEA6C5C1BD001B050EA410C0CBF70
:100A900052EA430C91EA030F02BF90EA020F0020D2
:100AA000704710F1000F91EA030F58BF994208BF39
:100AB00090422CBFD8176FEAE37040F001007047F6
:100AC0004FEA410C7FEA6C5C02D150EA013C07D14D
:100AD0004FEA430C7FEA6C5CD6D152EA033CD3D098
:100AE0005DF8040B704700BF8446104662468C4692
:100AF0001946634600E000BF01B5FFF7B7FF0028C5
:100B000048BF10F1000F01BD4DF808EDFFF7F4FFED
:100B10000CBF012000205DF808FB00BF4DF808ED78
:100B2000FFF7EAFF34BF012000205DF808FB00BF9B
:100B30004DF808EDFFF7E0FF94BF012000205DF8BD
:100B400008FB00BF4DF808EDFFF7CEFF94BF012072
:100B500000205DF808FB00BF4DF808EDFFF7C4FF6B
:100B600034BF012000205DF808FB00BF4FEA410CB4
:100B70007FEA6C5C02D150EA013C0AD14FEA430C97
:100B80007FEA6C5C02D152EA033C02D14FF00000D4
:100B900070474FF0010070474FEA410212F5001212
:100BA00015D211D56FF47873B3EB625212D94FEAB4
:100BB000C12343F0004343EA505311F0004F23FA9E
:100BC00002F018BF404270474FF00000704750EAF3
:100BD000013005D111F0004008BF6FF000407047B0
:100BE0004FF00000704700BF4FEA4102B2F1E0430E
:100BF00024BFB3F5001CDCF1FE5C0DD901F0004C04
:100C00004FEAC0024CEA5070B2F1004F40EB830053
:100C100008BF20F00100704711F0804F21D113F17F
:100C20003872BCBF01F00040704741F480114FEAB8
:100C30005252C2F11802C2F1200C10FA0CF320FA41
:100C400002F018BF40F001004FEAC1234FEAD3235E
:100C500003FA0CFC40EA0C0023FA02F34FEA4303C8
:100C6000CCE77FEA625307D150EA01331EBF4FF051
:100C7000FE4040F44000704701F0004040F0FE406C
:100C800040F40000704700BF53B94AB9002908BFBB
:100C900000281CBF4FF0FF314FF0FF3000F088B943
:100CA000ADF1080C6DE904CE00F006F8DDF804E0C3
:100CB000DDE9022304B070472DE9F047089D8E4618
:100CC00004468846002B4AD18A42174662D9B2FAB6
:100CD00082F64EB1C6F1200301FA06F820FA03F3BA
:100CE000B74043EA0808B4404FEA174E1FFA87FCA2
:100CF000B8FBFEF1230C0EFB118843EA084301FB0D
:100D00000CF29A4209D9FB1801F1FF3080F0EA8019
:100D10009A4240F2E78002393B449A1AA3B2B2FBEE
:100D2000FEF00EFB102243EA024300FB0CFC9C4544
:100D300009D9FB1800F1FF3280F0D6809C4540F2C3
:100D4000D3803B44023840EA0140A3EB0C0300216E
:100D50001DB1F3400022C5E90032BDE8F0878B42A7
:100D600005D90DB1C5E9000100210846F5E7B3FA40
:100D700083F1002946D1734502D3824200F20581F6
:100D8000841A6EEB030201209046002DE5D0C5E9E0
:100D90000048E2E7002A00F09080B2FA82F6002EC6
:100DA00040F0A4808A1A030C4FEA174E80B2BCB2FE
:100DB0000121B2FBFEFC0EFB1C2243EA024304FBB2
:100DC0000CF29A4207D9FB180CF1FF3802D29A4272
:100DD00000F2E080C4469B1AB3FBFEF20EFB123316
:100DE00040EA034302FB04F49C4207D9FB1802F1DA
:100DF000FF3002D29C4200F2CA8002461B1B42EA2C
:100E00000C40A5E7C1F120068B4022FA06F71F43EC
:100E10000EFA01F420FA06F32EFA06FE4FEA1749FD
:100E2000234300FA01F81FFA87FCBEFBF9F01C0C03
:100E300009FB10EE44EA0E4400FB0CFEA64502FA44
:100E400001F209D93C1900F1FF3A80F09C80A645D7
:100E500040F2998002383C44A4EB0E041FFA83FE52
:100E6000B4FBF9F309FB13444EEA044403FB0CFC06
:100E7000A44508D93C1903F1FF3E80F08280A445C7
:100E80007FD9023B3C4443EA0040A4EB0C04A0FBA6
:100E900002EC64457346E14662D35FD05DB1B8EBC6
:100EA000030264EB090404FA06F622FA01F31E4376
:100EB000CC40C5E9006400214FE7B1FBF2FC010C16
:100EC00041EA0E4180B240EA01423B4638463C4688
:100ED000B846BE462026B1FBF7F1A2EB080241EA74
:100EE0000C4166E7014618E710462CE7C6F12002E0
:100EF0002EFA02F3B740B14020FA02F24FEA174E41
:100F00000A43B3FBFEF8BCB20EFB1833110C41EAE6
:100F1000034108FB04F9B04089454FEA104380B211
:100F20003ED9791808F1FF3C01D289451FD8A1EBC1
:100F30000901B1FBFEF909FB04F80EFB191192B28D
:100F400042EA0142424529D2BA1809F1FF31C4D21E
:100F50004245C2D2A9F102013A44BEE7F0459DD212
:100F6000BEEB02036CEB070C0138E14696E7A7EBFA
:100F700009094944A8F1020CB1FBFEF909FB04F888
:100F8000DBE773467FE7504666E70846FDE63B44ED
:100F9000023A33E7ACF1020C3B441CE749469CE7BC
:100FA000A1EB0901C446B1FBFEF909FB04F8C4E753
:100FB000704700BF80B586B002AF78600123FB7335
:100FC0007B6818687B681B7919467B689B6807F10A
:100FD0000F020093012303F055FB1023FB737B6882
:100FE00018687B681B7919467B689B6807F10F02BC
:100FF0000093012303F046FB00BF1037BD4680BDC0
:1010000080B586B002AF78607B6818687B681B7912
:1010100019467B689B6807F10C020093022303F0DA
:1010200025FC3B7B1B027A7B134307EE903AF8EEDC
:10103000E77A9FED057AC7EE876AF0EE667AB0EE42
:10104000670A1037BD4680BD9A99993F80B584B034
:1010500000AF7860786800F049FA0346FB7397F9AF
:101060000F30002B17D179687B680122D02000F067
:1010700018F80346FB7397F90F30002B0BD17B68F0
:101080001B78582B05D1786800F07BFA0346FB7378
:1010900001E0FC23FB7397F90F3018461037BD466B
:1010A00080BD90B587B000AFB9607A603B60034601
:1010B000FB73386800F01AFA0346FB7597F917308E
:1010C000002B1ED1BB68002B1BD03B685B78002B2C
:1010D00003D1FB7B63F07F03FB733B68DC683B68F9
:1010E0005B68F87B7A68B968A04703461A463B6894
:1010F0001A723B6893F90830002B04D0FE23FB756D
:1011000001E0FF23FB7597F9173018461C37BD46E1
:1011100090BD90B58BB000AFF860B9607A603B606D
:101120007B68042B01D904237B60386800F0DEF96A
:10113000034687F8273097F92730002B50D1FB68FA
:10114000002B4DD0BB68002B4AD07B68002B43D0CE
:10115000BB681B783B753B685B78002B14D1002380
:10116000FB770DE0FB7FFA6813441A78FB7FF96880
:101170000B4402F07F02D2B21A70FB7F0133FB777F
:10118000FB7F7A689A42EDD87B68012B0BD907F177
:1011900014017B68BA68F86800F0C8F97B685B00E6
:1011A000013B3B6201E07B683B623B681C69FB687A
:1011B00018783B685B6807F114013A6AA047034658
:1011C0001A463B681A723B6893F90830002B0BD023
:1011D000FE2387F8273007E0FD2387F8273003E058
:1011E000FF2387F8273000E000BF97F92730184623
:1011F0002C37BD4690BD80B584B000AF7860E02349
:10120000BB73B6237B7307F10D0107F10E007B68FA
:101210000122FFF77EFF0346FB7397F90F30184654
:101220001037BD4680BD80B584B000AF78603960AE
:101230000023BB817B68002B2DD007F10C013B689C
:101240000222F420FFF72DFF0346FB7397F90F30BE
:10125000002B22D13B7B5B09DAB27B681A703B7BA7
:101260009B10DBB203F00703DAB27B685A707B7B1A
:101270005B09DAB27B689A707B7B9B10DBB203F070
:101280000703DAB27B681A717B7B03F00103DAB2E1
:101290007B685A7101E0FF23FB7397F90F30184602
:1012A0001037BD4680BD80B582B000AF7860396030
:1012B0003A687968002000F00BFA034618460837B0
:1012C000BD4680BD80B584B000AF786039607B6872
:1012D000002B1BD007F10E013B680122F320FFF722
:1012E000E0FE0346FB7397F90F30002B10D1BB7B58
:1012F000DB10DBB203F00103DAB27B681A70BB7B50
:1013000003F00103DAB27B685A7001E0FF23FB733C
:1013100097F90F3018461037BD4680BD80B586B0AE
:1013200000AF0346B9607A60FB73FB7B7A68B968EB
:10133000184600F0CDF90346FB7597F917301846AB
:101340001837BD4680BD80B586B000AF7860396083
:1013500007F1100300221A609A8007F108030022A7
:101360001A605A607B68002B24D007F110013B689B
:101370000622F720FFF795FE0346FB7597F9173015
:10138000002B19D107F1080207F110031146184686
:1013900000F0C8FA0346FB7597F91730002B0BD104
:1013A00007F108033A687968184600F00BF803461D
:1013B000FB7501E0FF23FB7597F9173018461837C6
:1013C000BD4680BD80B586B000AFF860B9607A6078
:1013D000786800F08BF80346FB7597F91730002BFF
:1013E00029D1FB68002B26D0BB68002B23D0B9681D
:1013F0004FF000024FF00003C1E90223B9684FF03B
:1014000000024FF00003C1E90023BB6808337A688B
:10141000F968184600F0CAFA0346FB7597F91730C9
:10142000002B0AD1BB687A68F968184600F0B4FB53
:101430000346FB7501E0FF23FB7597F9173018464B
:101440001837BD4680BD0000B0B592B000AFF8605F
:10145000B9607A60234B07F130041D460FCD0FC4ED
:101460002B682360204B07F110041D460FCD0FC4DD
:1014700095E80F0084E80F00786800F037F803461D
:1014800087F8473097F94730002B22D1BB68002BF3
:101490001FD07B681B7E032B11D1BB68DB789B00C0
:1014A00048333B4453F8182CBB689B789B00483367
:1014B0003B4453F8383C1A44FB681A600CE0BB68A4
:1014C000DB789B0048333B4453F8182CFB681A60C8
:1014D00002E0FF2387F8473097F94730184648372E
:1014E000BD46B0BD08A700081CA7000880B485B0A1
:1014F00000AF78607B68002B0BD07B68DB68002B2B
:1015000007D07B681B69002B03D07B685B69002BCD
:1015100002D1FF23FB7301E00023FB7397F90F3027
:1015200018461437BD465DF8047B704780B487B019
:1015300000AFF860B9607A603B6001237B6115E021
:10154000FA687B691A447B695B00013BB9680B440C
:1015500012781A707A687B691A447B695B00B968F3
:101560000B4412781A707B6901337B617A693B689E
:101570009A42E5D300BF00BF1C37BD465DF8047B2F
:10158000704780B58AB000AF786007F10C03002285
:101590001A605A609A60DA601A615A611A7607F125
:1015A0000C017B6819228820FFF77BFD034687F832
:1015B000273097F92730002B40F084807B7B1BB2CB
:1015C0001B021AB23B7B1BB213431BB29AB27B685D
:1015D0009A83FB7B1BB21B021AB2BB7B1BB2134369
:1015E0001AB27B68DA837B7C1BB21B021AB23B7C8B
:1015F0001BB213431AB27B681A84FB7C1BB21B021A
:101600001AB2BB7C1BB213431BB29AB27B685A84DA
:101610007B7D1BB21B021AB23B7D1BB213431AB275
:101620007B689A84FB7D1BB21B021AB2BB7D1BB286
:1016300013431AB27B68DA847B7E1BB21B021AB298
:101640003B7E1BB213431AB27B681A85FB7E1BB22A
:101650001B021AB2BB7E1BB213431AB27B685A85B7
:101660007B7F1BB21B021AB23B7F1BB213431AB221
:101670007B689A85FB7F1BB21B021AB2BB7F1BB231
:1016800013431AB27B68DA8597F821301BB21B022C
:101690001AB297F820301BB213431AB27B681A862D
:1016A00097F823301BB21B021AB297F822301BB2F4
:1016B00013431AB27B685A8697F824305AB27B6873
:1016C00083F8342097F9273018462837BD4680BD67
:1016D00080B586B000AF0346B9607A60FB73002323
:1016E000BB824FF2F4533B82BB68002B76D007F1EC
:1016F00014017B680222F420FFF7D3FC0346FB753C
:1017000097F91730002B6BD17868FFF774FD03460B
:10171000FB7597F91730002B62D107F11403B968F4
:10172000184600F063F87B7D5BB203F01F035AB2EA
:10173000BB689B785BB25B015BB213435BB2DBB20D
:101740007B757B7D5BB223F01C035AB2BB681B79AF
:101750005BB29B005BB203F01C035BB213435BB252
:10176000DBB27B757B7D5BB223F001035AB2BB68B1
:101770005B795BB203F001035BB213435BB2DBB294
:101780007B7507F1140107F110007B680222FFF757
:10179000C0FC0346FB7597F91730002B20D1FB7B6B
:1017A000002B1DD07B68FA7B1A763B7D5BB223F061
:1017B00003035AB297F90F3003F003035BB21343EC
:1017C0005BB2DBB23B7507F1140107F110007B68D7
:1017D0000122FFF79EFC0346FB7501E0FF23FB752A
:1017E00097F9173018461837BD4680BD80B483B0CE
:1017F00000AF786039603B68DB78042B00F28B80A7
:1018000001A252F823F000BF1D1800084F1800086D
:1018100081180008B3180008E51800087B681B78D9
:101820005BB203F01F035BB243F020035BB2DAB29A
:101830007B681A707B681B785BB223F01C035BB279
:1018400043F004035BB2DAB27B681A7064E07B6831
:101850001B785BB203F01F035BB243F020035BB263
:10186000DAB27B681A707B681B785BB223F01C03CA
:101870005BB243F008035BB2DAB27B681A704BE0EC
:101880007B681B785BB203F01F035BB243F020035D
:101890005BB2DAB27B681A707B681B785BB223F0AC
:1018A0001C035BB243F00C035BB2DAB27B681A70C4
:1018B00032E07B681B785BB203F01F035BB243F03E
:1018C00020035BB2DAB27B681A707B681B785BB26C
:1018D00023F01C035BB243F010035BB2DAB27B6807
:1018E0001A7019E07B681B785BB203F01F035BB2D0
:1018F00043F040035BB2DAB27B681A707B681B78F6
:101900005BB223F01C035BB243F014035BB2DAB2A8
:101910007B681A7000E000BF00BF0C37BD465DF861
:10192000047B704780B586B000AF786039607B6813
:101930001B781B037B617B6801331B781B013B61B8
:101940007B6802331B781B09DBB2FB607A693B6959
:101950001A43FB681A433B685A607B6803331B7861
:101960001B037B617B6804331B781B013B617B6835
:1019700005331B781B09DBB2FB607A693B691A43AC
:10198000FB6813431A463B681A603B681A683B6859
:101990005B681946104600F0E3FA0346FB7297F9BC
:1019A0000B3018461837BD4680BD00002DE9B04306
:1019B0008CB000AFF860B9607A60002387F82F30F0
:1019C000BB681B681846FEF7CDFD4FF000026C4B5C
:1019D000FEF75CFF02460B4614461D467B689B8B58
:1019E0001846FEF7AFFD4FF00002664BFEF74EFFC4
:1019F00002460B4620462946FEF766FC02460B4689
:101A000014461D467B68B3F91E301846FEF7AAFD42
:101A100002460B4620462946FEF70EFE02460B46BE
:101A2000C7E90623BB681B681846FEF79BFD4FF00D
:101A300000024FF08243FEF729FF02460B46144690
:101A40001D467B689B8B1846FEF77CFD4FF000021D
:101A50004D4BFEF71BFF02460B4620462946FEF77C
:101A600033FC02460B4614461D46BB681B681846ED
:101A7000FEF778FD4FF000024FF08243FEF706FFBD
:101A800002460B46904699467B689B8B1846FEF7AC
:101A900059FD4FF000023C4BFEF7F8FE02460B46A4
:101AA00040464946FEF710FC02460B4620462946B2
:101AB000FEF7C2FD02460B4614461D467B68B3F98D
:101AC00020301846FEF74EFD02460B4620462946BA
:101AD000FEF7B2FD02460B46C7E90423D7E904230B
:101AE000D7E90601FEF7F2FB02460B4610461946FF
:101AF000FFF752F802467B689A63D7E90423D7E9D7
:101B00000601FEF7E3FB02460B46104619464FF06E
:101B100000021E4BFEF7BAFE02460B46C7E9082339
:101B20004FF000021A4BD7E90801FEF7F7FF034612
:101B3000002B07D04FF00002154BC7E90823012303
:101B400087F82F304FF00002124BD7E90801FFF75A
:101B500003F80346002B07D04FF000020D4BC7E9F6
:101B60000823022387F82F30F968D7E90823C1E951
:101B7000002397F92F3018463037BD46BDE8B083B3
:101B80000000D040000090400000C0400000B44081
:101B9000000044C000405540B0B58CB000AFF860C4
:101BA000B9607A60002387F82F304FF000024FF0C1
:101BB0000003C7E908237B689B6B1846FEF7D2FC3D
:101BC0004FF000024FF08043FEF760FE02460B46E6
:101BD000104619464FF00002CB4BFEF775FB02464C
:101BE0000B46C7E90623D7E90623D7E90601FEF726
:101BF00023FD02460B4614461D467B68B3F92C3084
:101C00001846FEF7AFFC02460B4620462946FEF773
:101C100013FD02460B46104619464FF00002BB4B1F
:101C2000FEF734FE02460B46C7E904237B68B3F98E
:101C30002A301846FEF796FCD7E90623FEF7FCFC8F
:101C400002460B461046194602460B46FEF73EFB7F
:101C500002460B46D7E90401FEF738FB02460B4665
:101C6000C7E904234FF00002A94BD7E90401FEF7AE
:101C70000DFE02460B4614461D467B68B3F928301C
:101C80001846FEF76FFC4FF00002A24BFEF7D4FCA3
:101C900002460B4620462946FEF718FB02460B4635
:101CA000C7E904237B68B3F926301846FEF75AFCCF
:101CB000D7E90623FEF7C0FC02460B46104619463C
:101CC000D7E90623FEF7B8FC02460B461046194634
:101CD0004FF00002904BFEF7D9FD02460B4614462A
:101CE0001D467B68B3F924301846FEF73BFCD7E964
:101CF0000623FEF7A1FC02460B4620462946FEF7C6
:101D0000E5FA02460B46104619464FF00002824B98
:101D1000FEF7BCFD02460B46C7E906234FF0000262
:101D20007A4BD7E90601FEF7B1FD02460B46104695
:101D300019464FF00002794BFEF7C8FA02460B46EF
:101D400014461D467B685B8C1846FEF7FBFB02467B
:101D50000B4620462946FEF76FFC02460B46C7E9B4
:101D600006234FF000024FF00003D7E90601FEF70B
:101D7000D5FE0346002B0BD14FF000024FF00003BD
:101D8000D7E90601FEF7E8FE0346002B00F0DE80EF
:101D9000BB685B681846FEF7D5FB02460B464FF062
:101DA00000005F49FEF790FA02460B46C7E9082398
:101DB0004FF000025B4BD7E90401FEF767FD0246D6
:101DC0000B46D7E90801FEF77FFA02460B4610469C
:101DD000194647A3D3E90023FEF72EFC02460B4623
:101DE00010461946D7E90623FEF750FD02460B467A
:101DF000C7E908237B68B3F932301846FEF7B2FB17
:101E0000D7E90823FEF718FC02460B461046194690
:101E1000D7E90823FEF710FC02460B461046194688
:101E20004FF00002404BFEF731FD02460B46C7E97A
:101E300006237B68B3F930301846FEF793FBD7E9E9
:101E40000823FEF7F9FB02460B46104619464FF0F1
:101E500000022E4BFEF71AFD02460B46C7E904238B
:101E6000D7E90423D7E90601FEF730FA02460B460C
:101E700014461D467B68B3F92E301846FEF772FBF8
:101E800002460B4620462946FEF720FA02460B463C
:101E9000104619464FF00002244BFEF7F7FC0246AD
:101EA0000B46D7E90801FEF711FA02460B46C7E9CF
:101EB000082311A3D3E90023D7E90801FEF72EFE7A
:101EC0000346002B07D00CA3D3E90023C7E908235E
:101ED000032387F82F300AA3D3E90023D7E90801A9
:101EE000FEF73AFE0346002B22E000BFAFF300806E
:101EF00000000000006AB84000000000004CDD4017
:101F00000000000000DBFA400040EF400000E0402D
:101F1000000010400000F040000020410000F03FB1
:101F2000000030410000B0400000E04100003040BF
:101F300007D009A3D3E90023C7E90823042387F8BE
:101F40002F30F968D7E90823C1E9002397F92F302A
:101F500018463037BD46B0BD0000000000DBFA4037
:101F600080B485B000AF786039600023FB733B68B4
:101F7000002B03DB3B681C4A934209DD7B68002B86
:101F800006DB7B68184A934202DCFA23FB7323E0EA
:101F90007B68002B03DB7B68134A934209DD3B68B7
:101FA000002B06DB3B68104A934202DCFB23FB73E9
:101FB00012E03B68002B03DB3B680B4A934209DDD0
:101FC0007B68002B03DB7B68074A934202DDF92321
:101FD000FB7301E00023FB7397F90F3018461437A9
:101FE000BD465DF8047B7047F0FF0F0080B586B0FA
:101FF00000AF78607868FFF729F80346FB7507F1B2
:10200000080379681846FFF70EF90346FB750023AD
:102010003B730023FB720323BB7207F1080379684B
:102020001846FFF740F90346FB7507F108037A6885
:1020300019460320FFF772F90346FB7507F1080103
:1020400007F110037A681846FFF7FEF90346FB759F
:1020500097F9173018461837BD4680BD80B58CB04B
:1020600000AFB9607A603B600346FB73002387F8DA
:102070002D30002387F82F303B681B7887F82C30F1
:1020800097F82C302E4A52F8230097F82C302D4A1E
:1020900032F813300022194602F026FA07F10F0138
:1020A00005230122284803F0EFFE034687F82D3070
:1020B0007B689AB20523B968234804F053F80346B5
:1020C0001A4697F82D30134487F82D30002387F8EF
:1020D0002E3012E097F82E30194A52F8230097F864
:1020E0002E30184A32F813300122194602F0FCF95A
:1020F00097F82E30013387F82E3097F82E30012BC9
:10210000E8D907F1100300221A605A609A60DA6079
:102110001A615A619A6107F110037A68B968184622
:1021200006F097FA97F82D30002B02D0FF2387F89E
:102130002F3097F92F3018463037BD4680BD00BF8D
:1021400010000020180000204403002080B58CB04F
:1021500000AFB9607A603B600346FB73002387F8E9
:102160002D30002387F82F303B681B7887F82C3000
:1021700007F1100300221A605A609A60DA601A614F
:102180005A619A6107F110037A68B968184606F037
:1021900060FA97F82C30264A52F8230097F82C3032
:1021A000244A32F813300022194602F09DF907F153
:1021B0000F0105230122204803F066FE034687F83D
:1021C0002D307B689AB20523B9681B4803F05CFE8A
:1021D00003461A4697F82D30134487F82D30002314
:1021E00087F82E3012E097F82E30114A52F823006B
:1021F00097F82E300F4A32F813300122194602F0B8
:1022000073F997F82E30013387F82E3097F82E3077
:10221000012BE8D997F82D30002B02D0FF2387F847
:102220002F3097F92F3018463037BD4680BD00BF9C
:1022300010000020180000204403002080B582B068
:1022400000AF786039607B68054AA2FB03239B09D5
:10225000184601F0F5F800BF0837BD4680BD00BF45
:10226000D34D621080B58CB000AF7860FF2387F843
:102270002E304FF000021A4BC7E908230A2387F8D3
:102280002F3007F11C0379681846FFF71BF8034647
:1022900087F82E3007F1080379681846FFF753F8DE
:1022A000034687F82E30D7E90423C7E9082397F9B6
:1022B0002F30DBB2013BDBB287F82F303B7F002BA6
:1022C00003D097F92F30002BDBDCD7E9082343EC50
:1022D000172BB0EE470AF0EE670A3037BD4680BDD7
:1022E0000000F0BF80B584B000AF3B4600221A600A
:1022F0005A609A60DA60284B284A1A60264B4FF4DD
:1023000080325A60244B00229A60234B01221A61CA
:10231000214B00229A61204B002283F820201E4B83
:102320000022DA621C4B1E4A9A621B4B0022DA60C2
:10233000194B0222DA61184B012283F83020164B28
:1023400000225A61144801F09FF80346002B01D087
:1023500000F0E2FC09233B6001237B600723BB60A4
:102360003B4619460C4801F0D3F80346002B01D038
:1023700000F0D2FC0C233B6002237B603B461946F5
:10238000054801F0C5F80346002B01D000F0C4FC5D
:1023900000BF1037BD4680BD48020020002001402C
:1023A0000100000F80B58AB000AF786007F1140318
:1023B00000221A605A609A60DA601A617B681B68B2
:1023C000394A93426BD1394B5B6C384A43F4807382
:1023D0005364364B5B6C03F480733B613B69334B56
:1023E0001B6B324A43F004031363304B1B6B03F047
:1023F0000403FB60FB682D4B1B6B2C4A43F002036C
:1024000013632A4B1B6B03F00203BB60BB680423FE
:102410007B610323BB610023FB6107F114031946B1
:10242000234801F0B5FE02237B610323BB61002337
:10243000FB6107F1140319461E4801F0A9FE1E4B6B
:102440001E4A1A601C4B00225A601B4B00229A60E5
:10245000194B0022DA60184B4FF480621A61164B58
:102460004FF400625A61144B4FF400529A61124BC0
:102470004FF48072DA61104B00221A620E4B002278
:102480005A620D4801F09AFB0346002B01D000F080
:1024900043FC7B68084A9A63074A7B68936300BFE2
:1024A0002837BD4680BD00BF0020014000380240F3
:1024B0000008024000040240900200201064024024
:1024C00080B582B000AF164B1B6B154A43F4001366
:1024D0001363134B1B6B03F400137B607B68104B7F
:1024E0001B6B0F4A43F4800313630D4B1B6B03F408
:1024F00080033B603B68002201210C2001F027FB98
:102500000C2001F040FB00220021382001F01FFBCD
:10251000382001F038FB00BF0837BD4680BD00BF42
:102520000038024080B58CB000AF07F11C030022D8
:102530001A605A609A60DA601A61B54B1B6BB44A34
:1025400043F010031363B24B1B6B03F01003BB612A
:10255000BB69AF4B1B6BAE4A43F004031363AC4B38
:102560001B6B03F004037B617B69A94B1B6BA84ABF
:1025700043F080031363A64B1B6B03F080033B61A6
:102580003B69A34B1B6BA24A43F001031363A04BAF
:102590001B6B03F00103FB60FB689D4B1B6B9C4AAC
:1025A00043F0020313639A4B1B6B03F00203BB60FF
:1025B000BB68974B1B6B964A43F008031363944B1D
:1025C0001B6B03F008037B607B68914B1B6B904A8D
:1025D00043F0400313638E4B1B6B03F040033B60DF
:1025E0003B68012218218B4801F07EFF0022102158
:1025F000894801F079FF00224CF6B141874801F08B
:1026000073FF00224FF40041824801F06DFF002269
:102610004821834801F068FF00224FF4A0718148EF
:1026200001F062FF1823FB6101233B6200237B6200
:102630000323BB6207F11C031946764801F0A8FD8D
:102640004FF40053FB61784B3B6200237B6207F140
:102650001C031946734801F09BFD1023FB61012305
:102660003B6200237B620023BB6207F11C03194617
:10267000694801F08DFD4CF6B143FB6101233B62DB
:1026800000237B620023BB6207F11C0319466348E9
:1026900001F07EFD40F20143FB61644B3B6200238D
:1026A0007B6207F11C0319465A4801F071FD4FF493
:1026B0008053FB615D4B3B6201237B6207F11C038E
:1026C0001946544801F064FD4FF48043FB61564BBA
:1026D0003B6202237B6207F11C0319464D4801F05F
:1026E00057FD4FF40043FB6101233B6200237B62F3
:1026F0000023BB6207F11C031946464801F048FD60
:102700004FF40063FB6100233B6200237B6207F10F
:102710001C031946464801F03BFD0823FB610123D9
:102720003B6200237B620323BB6207F11C03194653
:102730003B4801F02DFD4023FB6101233B62002358
:102740007B620023BB6207F11C031946344801F089
:102750001FFD8023FB6100233B6200237B6207F1A6
:102760001C0319462E4801F013FD4FF4A073FB61C2
:1027700001233B6200237B620023BB6207F11C0341
:102780001946284801F004FD4FF40073FB61274B04
:102790003B6200237B6207F11C031946214801F0CC
:1027A000F7FC4FF4E853FB6102233B6200237B629A
:1027B0000323BB620A23FB6207F11C031946164878
:1027C00001F0E6FC4FF40073FB6100233B62002341
:1027D0007B6207F11C0319460F4801F0D9FC4FF446
:1027E0008053FB6102233B6200237B620323BB62B5
:1027F0000623FB6207F11C0319460A4801F0C8FCD6
:1028000000220021172001F0A2F9172012E000BFDA
:102810000038024000100240000002400004024064
:1028200000180240000802400000111000002110B2
:10283000000C024001F0A7F900220121282001F03C
:1028400086F9282001F09FF900BF3037BD4680BDD2
:1028500080B500AF1B4B1C4A1A601A4B1B4A5A60CA
:10286000184B00229A60174B0122DA60154B0022A8
:102870001A61144B00225A61124B00229A61114BCB
:102880000022DA610F4B00221A620E4801F06AFE44
:102890000346002B01D000F03FFA0021094802F066
:1028A00091FD0346002B01D000F036FA00210548C7
:1028B00002F0D3FD0346002B01D000F02DFA00BF3B
:1028C00080BD00BFF0020020005400406847402057
:1028D00080B58AB000AF786007F1140300221A6057
:1028E0005A609A60DA601A617B681B68174A9342E3
:1028F00028D1174B1B6B164A43F002031363144B8A
:102900001B6B03F002033B613B694FF440737B6137
:102910001223BB610023FB6103233B6204237B6220
:1029200007F1140319460B4801F032FC084B1B6CED
:10293000074A43F400131364054B1B6C03F40013A4
:10294000FB60FB6800BF2837BD4680BD00540040D7
:10295000003802400004024080B588B004AF7860BF
:102960000B46FB7013463B803B881B0A9BB2DBB2D5
:102970003B733B88DBB27B73FB789AB24FF0FF333B
:1029800002930223019307F10C030093012380219A
:10299000786802F061F800BF1037BD4680BD80B591
:1029A00088B004AF78600B46FB70FB789AB24FF0AA
:1029B000FF3302930223019307F10C0300930123D9
:1029C0008021786802F05CF93B7B1BB21B021AB2D3
:1029D0007B7B1BB213431BB29BB218461037BD461C
:1029E00080BD80B582B000AF78604FF48052052181
:1029F0007868FFF7B1FF00BF0837BD4680BD000013
:102A000080B584B000AF786002217868FFF7C7FF17
:102A10000346FB81FB895B089BB207EE903AF8EE18
:102A2000E77A17EE900AFDF7AFFD09A3D3E900237B
:102A3000FDF702FE02460B4610461946FEF7D4F893
:102A4000034607EE903AB0EE670A1037BD4680BDE8
:102A5000FCA9F1D24D62503F80B582B000AF7860E2
:102A600004217868FFF79BFF034607EE903AF8EEE3
:102A7000677AB0EE670A0837BD4680BD80B582B080
:102A800000AF78607B681B68054A934203D100F071
:102A900009F800F015F800BF0837BD4680BD00BF3B
:102AA0000044014080B500AF0348FEF7A9FA03488F
:102AB000FFF7D8FB00BF80BD000000201C000020F5
:102AC0002DE9B04FADF5047D0EAF6F48FEF798FAD3
:102AD00087ED750A6D48FFF7C5FB87ED720B6C48F3
:102AE000FFF78EFF07EE900AF8EEE77AC7ED717AEE
:102AF0006748FFF7B1FF07EE900AF8EEE77AC7EDF7
:102B0000707A97ED717AD7ED707A27EE277ADFED3C
:102B1000616AC7EE267AC7ED6F7A5D48FFF770FFEE
:102B200007EE900AF8EEE77AC7ED6E7A5848FFF79D
:102B300093FF07EE900AF8EEE77AC7ED6D7A97ED0E
:102B40006E7AD7ED6D7A27EE277ADFED526AC7EEFF
:102B5000267AC7ED6C7AD7F8D401FDF715FDC7E9E1
:102B60000401D7F8C401FDF70FFD80468946D7F868
:102B7000C001FDF709FD82468B46D7F8BC01FDF781
:102B800003FDC7E90201D7F8B801FDF7FDFCC7E96D
:102B90000001D7F8B401FDF7F7FC04460D46D7F85D
:102BA000B001FDF7F1FC02460B46CDE90C23CDE95F
:102BB0000A4597ED007B8DED087B97ED027B8DED4F
:102BC000067BCDE904ABCDE90289D7E97223CDE9D3
:102BD0000023D7E90423304805F044FCD7F8D4019A
:102BE000FDF7D2FCC7E90401D7F8C401FDF7CCFC1E
:102BF00080468946D7F8C001FDF7C6FC82468B4661
:102C0000D7F8BC01FDF7C0FCC7E90201D7F8B8014D
:102C1000FDF7BAFCC7E90001D7F8B401FDF7B4FC31
:102C200004460D46D7F8B001FDF7AEFC02460B4650
:102C300007F11C00CDE90C23CDE90A4597ED007B97
:102C40008DED087B97ED027B8DED067BCDE904AB26
:102C5000CDE90289D7E97223CDE90023D7E904231E
:102C60000E4905F011FCC7F8AC01D7F8AC319AB2A7
:102C700007F11C0164230A4804F094FA00BF07F529
:102C8000EC77BD46BDE8B08F000000201C0000209E
:102C9000F002002000007A443CA70008A8A7000822
:102CA0004404002080B500AF00F06DFB00F03AF85E
:102CB000FFF738FCFFF704FC00F096FAFFF7C8FDB9
:102CC000FFF710FB00F004FA0D48FEF773F90D480A
:102CD000FFF78CF90C4B0D4A1A600D4B0B4A1A602A
:102CE000094B1B681846FFF77CFE094B1B6818460A
:102CF000FFF777FE074803F089FF00BFFDE700BF3D
:102D0000000000201C0000203C030020F0020020F6
:102D100040030020F803002080B400AF72B600BF6B
:102D200000BFFDE780B594B000AF07F1200330226B
:102D30000021184605F00DFC07F10C0300221A6073
:102D40005A609A60DA601A61274B1B6C264A43F07E
:102D500080531364244B1B6C03F08053BB60BB682F
:102D6000224B1B68214A43F4404313601F4B1B68EE
:102D700003F440437B607B6801233B624FF4A02354
:102D80007B620223BB634FF48003FB6304233B6439
:102D9000D8237B640223BB640323FB6407F1200375
:102DA000184602F0A7FB0346002B01D0FFF7B4FF43
:102DB0000F23FB6002233B6100237B614FF4A05390
:102DC000BB614FF48053FB6107F10C0307211846E8
:102DD00002F034FE0346002B01D0FFF79DFF00BF39
:102DE0005037BD4680BD00BF003802400070004033
:102DF00080B483B000AF0F4B1B6C0E4A43F080537E
:102E000013640C4B1B6C03F080537B607B68094B95
:102E10005B6C084A43F480435364064B5B6C03F4D9
:102E200080433B603B6800BF0C37BD465DF8047BC8
:102E3000704700BF0038024080B400AF00BFFDE71C
:102E400080B400AF00BFFDE780B400AF00BFFDE776
:102E500080B400AF00BFFDE780B400AF00BFFDE766
:102E600080B400AF00BFBD465DF8047B704780B4FE
:102E700000AF00BFBD465DF8047B704780B400AF73
:102E800000BFBD465DF8047B704780B500AF00F021
:102E9000B7FA00BF80BD000080B500AF024800F067
:102EA0003BFF00BF80BD00BFC804002080B500AF5D
:102EB0004FF4007001F032FB00BF80BD80B500AF61
:102EC000024803F01BFF00BF80BD00BFF8030020D5
:102ED00080B500AF024803F011FF00BF80BD00BF06
:102EE000AC03002080B500AF4FF4806001F016FB0A
:102EF0004FF4805001F012FB4FF4005001F00EFB34
:102F00004FF4804001F00AFB00BF80BD80B500AFE8
:102F1000024800F001FF00BF80BD00BF900200200A
:102F200080B400AF01231846BD465DF8047B7047AE
:102F300080B582B000AF7860396005F05DFB034674
:102F400016221A604FF0FF3318460837BD4680BD81
:102F500080B582B000AF78604FF0FF317868FFF73E
:102F6000E7FF00BFFDE780B586B000AFF860B9604D
:102F70007A6000237B610AE0AFF300800146BB6802
:102F80005A1CBA60CAB21A707B6901337B617A69D4
:102F90007B689A42F0DB7B6818461837BD4680BDD7
:102FA00080B586B000AFF860B9607A6000237B61BD
:102FB00009E0BB685A1CBA601B781846AFF3008062
:102FC0007B6901337B617A697B689A42F1DB7B68BC
:102FD00018461837BD4680BD80B483B000AF786016
:102FE0004FF0FF3318460C37BD465DF8047B704741
:102FF00080B483B000AF786039603B684FF4005212
:103000005A60002318460C37BD465DF8047B7047B4
:1030100080B483B000AF7860012318460C37BD46FA
:103020005DF8047B704780B485B000AFF860B9608C
:103030007A60002318461437BD465DF8047B70475C
:1030400080B586B000AF7860144A154BD31A7B6107
:103050007B693B61134B1B68002B02D1114B124A59
:103060001A60104B1A687B6813443A699A4207D277
:1030700005F0C2FA03460C221A604FF0FF3309E054
:10308000084B1B68FB60074B1A687B681344054AB2
:103090001360FB6818461837BD4680BD0000052048
:1030A00000040000A80300207806002080B400AFD0
:1030B000064BD3F88830054A43F47003C2F88830D1
:1030C00000BFBD465DF8047B704700BF00ED00E027
:1030D00080B500AF0E4B0F4A1A600D4B45F25F42B0
:1030E0005A600B4B00229A60094B40F6B732DA6007
:1030F000074B00221A61064B00229A61044803F034
:103100002DFD0346002B01D0FFF706FE00BF80BD5A
:10311000F80300200044014080B586B000AF78601D
:103120007B681B68B3F1804F14D12B4B1B6C2A4A70
:1031300043F001031364284B1B6C03F001037B6114
:103140007B69002200211C2000F001FD1C2000F002
:103150001AFD3CE07B681B68204A93420CD11E4B51
:103160001B6C1D4A43F0040313641B4B1B6C03F0E0
:1031700004033B613B692AE07B681B68184A934261
:103180000CD1154B1B6C144A43F008031364124B0B
:103190001B6C03F00803FB60FB6818E07B681B688E
:1031A000104A934213D10C4B5B6C0B4A43F400332F
:1031B0005364094B5B6C03F40033BB60BB680022B3
:1031C0000121192000F0C3FC192000F0DCFC00BF35
:1031D0001837BD4680BD00BF0038024000080040DF
:1031E000000C00400044014080B500AF144B154A6C
:1031F0001A60134B4FF416525A60114B00229A601A
:103200000F4B0022DA600E4B00221A610C4B0C228D
:103210005A610B4B00229A61094B0022DA61084B7C
:1032200000221A62064B00225A62054803F06CFF26
:103230000346002B01D0FFF76FFD00BF80BD00BF2C
:10324000440400200048004080B58AB000AF786098
:1032500007F1140300221A605A609A60DA601A615A
:103260007B681B682E4A934256D12E4B1B6C2D4A0D
:1032700043F4802313642B4B1B6C03F480233B61CA
:103280003B69284B1B6B274A43F008031363254B0C
:103290001B6B03F00803FB60FB684FF440737B611A
:1032A0000223BB610023FB6103233B6207237B6294
:1032B00007F1140319461C4800F06AFF1B4B1C4A17
:1032C0001A601A4B4FF000625A60184B00229A6045
:1032D000164B0022DA60154B4FF480621A61134BD3
:1032E00000225A61114B00229A61104B0022DA61D0
:1032F0000E4B00221A620D4B00225A620B4800F05E
:103300005DFC0346002B01D0FFF706FD7B68074AF2
:103310001A67064A7B68936300BF2837BD4680BDA5
:103320000048004000380240000C0240C804002061
:1033300028600240DFF834D00D480E490E4A0023C1
:1033400002E0D458C4500433C4188C42F9D30B4A59
:103350000B4C002301E013600432A242FBD3FFF7C1
:10336000A5FE05F04FF9FFF79DFC70470000052012
:10337000000000202C0200207CAD00082C02002060
:1033800078060020FEE780B500AF032000F0D4FBF4
:10339000002000F005F8FFF72BFD0023184680BD44
:1033A00080B582B000AF7860124B1A68124B1B7860
:1033B00019464FF47A73B3FBF1F3B2FBF3F31846FB
:1033C00000F0EFFB0346002B01D001230EE07B68E9
:1033D0000F2B0AD8002279684FF0FF3000F0B7FBBE
:1033E000064A7B681360002300E001231846083773
:1033F000BD4680BD58000020600000205C00002019
:1034000080B400AF064B1B781A46064B1B6813446A
:10341000044A136000BFBD465DF8047B704700BFDF
:10342000600000202805002080B400AF034B1B681B
:103430001846BD465DF8047B704700BF2805002094
:1034400080B584B000AF7860FFF7EEFFB8607B68AE
:10345000FB60FB68B3F1FF3F05D00A4B1B781A46AF
:10346000FB681344FB6000BFFFF7DEFF0246BB684A
:10347000D31AFA689A42F7D800BF00BF1037BD468A
:1034800080BD00BF6000002080B584B000AF7860D0
:103490000023FB737B68002B01D1012331E07B68A3
:1034A0001B6C002B09D17868FEF77CFF7B6800223B
:1034B0005A647B68002283F83C207B681B6C03F015
:1034C0001003002B16D17B681A6C104B134043F08D
:1034D00002027B681A64786800F064F97B68002255
:1034E0005A647B681B6C23F0030343F001027B6882
:1034F0001A6401E00123FB737B68002283F83C20FF
:10350000FB7B18461037BD4680BD00BFFDEEFFFFB8
:1035100080B485B000AF786039600023FB607B68C1
:1035200093F83C30012B01D102232AE17B68012270
:1035300083F83C203B681B68092B3AD93B681B6821
:10354000B3F1004F35D07B681B68D9683B681B68B6
:103550009BB21A4613465B0013441E3B072202FA35
:1035600003F3DA437B681B680A40DA603B681B6838
:10357000874A93420AD17B681B68D9683B689B687D
:103580001A067B681B680A43DA6035E07B681B68B3
:10359000D9683B689A683B681B689BB2184603462B
:1035A0005B0003441E3B9A407B681B680A43DA6059
:1035B00022E07B681B6819693B681B689BB21A464E
:1035C00013465B001344072202FA03F3DA437B68D5
:1035D0001B680A401A617B681B6819693B689A6816
:1035E0003B681B689BB2184603465B0003449A4045
:1035F0007B681B680A431A613B685B68062B24D80A
:103600007B681B68596B3B685A6813469B001344E0
:10361000053B1F2202FA03F3DA437B681B680A406A
:103620005A637B681B68596B3B681B689BB21846E2
:103630003B685A6813469B001344053B00FA03F2AB
:103640007B681B680A435A634CE03B685B680C2B41
:1036500024D87B681B68196B3B685A6813469B002B
:103660001344233B1F2202FA03F3DA437B681B68EF
:103670000A401A637B681B68196B3B681B689BB226
:1036800018463B685A6813469B001344233B00FAD4
:1036900003F27B681B680A431A6323E07B681B689C
:1036A000D96A3B685A6813469B001344413B1F226A
:1036B00002FA03F3DA437B681B680A40DA627B682C
:1036C0001B68D96A3B681B689BB218463B685A68FE
:1036D00013469B001344413B00FA03F27B681B68CE
:1036E0000A43DA627B681B682A4A93420AD13B6824
:1036F0001B68B3F1004F05D1274B5B68264A23F4C2
:10370000400353607B681B68224A934209D13B689F
:103710001B68122B05D1204B5B681F4A43F48003C2
:1037200053607B681B681B4A934225D13B681B682A
:10373000174A934203D03B681B68112B1CD1164BD0
:103740005B68154A43F4000353603B681B68104AEA
:10375000934211D1114B1B68114AA2FB03239A0C0F
:1037600013469B0013445B00FB6002E0FB68013BD7
:10377000FB60FB68002BF9D17B68002283F83C20BA
:10378000002318461437BD465DF8047B704700BF20
:1037900012000010002001400023014058000020CA
:1037A00083DE1B4380B483B000AF7860784B5B68E6
:1037B000774A23F440335360754B5A687B685B68E3
:1037C000734913434B607B681B685A687B681B68AE
:1037D00022F480725A607B681B6859687B681B6999
:1037E0001A027B681B680A435A607B681B685A6828
:1037F0007B681B6822F040725A607B681B685968BE
:103800007B689A687B681B680A435A607B681B6800
:103810009A687B681B6822F400629A607B681B6868
:1038200099687B68DA687B681B680A439A607B68E2
:103830009B6A584A934222D07B681B689A687B68CF
:103840001B6822F070629A607B681B6899687B68CD
:103850009A6A7B681B680A439A607B681B689A684F
:103860007B681B6822F040529A607B681B689968ED
:103870007B68DA6A7B681B680A439A600FE07B68A2
:103880001B689A687B681B6822F070629A607B688C
:103890001B689A687B681B6822F040529A607B68BC
:1038A0001B689A687B681B6822F002029A607B683A
:1038B0001B6899687B689B695A007B681B680A4390
:1038C0009A607B6893F82030002B1BD07B681B68C4
:1038D0005A687B681B6842F400625A607B681B6808
:1038E0005A687B681B6822F460425A607B681B68D8
:1038F00059687B685B6A013B5A037B681B680A4313
:103900005A6007E07B681B685A687B681B6822F472
:1039100000625A607B681B68DA6A7B681B6822F465
:103920007002DA627B681B68D96A7B68DB69013BDD
:103930001A057B681B680A43DA627B681B689A6811
:103940007B681B6822F400729A607B681B68996828
:103950007B6893F830305A027B681B680A439A6090
:103960007B681B689A687B681B6822F480629A6097
:103970007B681B6899687B685B699A027B681B6837
:103980000A439A6000BF0C37BD465DF8047B704760
:10399000002301400100000F80B485B000AF7860C3
:1039A0007B6803F00703FB600B4BDB68BB60BA6806
:1039B0004FF6FF031340BB60FB681A02BB681A4353
:1039C000064B1343BB60044ABB68D36000BF143787
:1039D000BD465DF8047B704700ED00E00000FA058D
:1039E00080B400AF044BDB681B0A03F007031846E2
:1039F000BD465DF8047B704700ED00E080B483B005
:103A000000AF0346FB7197F90730002B0BDBFB7906
:103A100003F01F02074997F907305B09012000FAFC
:103A200002F241F8232000BF0C37BD465DF8047B4D
:103A3000704700BF00E100E080B483B000AF0346F0
:103A40003960FB7197F90730002B0ADB3B68DAB26B
:103A50000C4997F907301201D2B20B4483F80023C6
:103A60000AE03B68DAB20849FB7903F00F03043B34
:103A70001201D2B20B441A7600BF0C37BD465DF876
:103A8000047B704700E100E000ED00E080B489B005
:103A900000AFF860B9607A60FB6803F00703FB6170
:103AA000FB69C3F10703042B28BF0423BB61FB6937
:103AB0000433062B02D9FB69033B00E000237B6142
:103AC0004FF0FF32BB6902FA03F3DA43BB681A40D6
:103AD0007B699A404FF0FF317B6901FA03F3D943C8
:103AE0007B680B40134318462437BD465DF8047BC2
:103AF0007047000080B582B000AF78607B68013B02
:103B0000B3F1807F01D301230FE00A4A7B68013BB8
:103B100053600F214FF0FF30FFF78EFF054B00225F
:103B20009A60044B07221A60002318460837BD46E6
:103B300080BD00BF10E000E080B582B000AF7860CB
:103B40007868FFF729FF00BF0837BD4680BD80B504
:103B500086B000AF0346B9607A60FB7300237B61D7
:103B6000FFF73EFF78617A68B9687869FFF78EFFE2
:103B7000024697F90F3011461846FFF75DFF00BF68
:103B80001837BD4680BD80B582B000AF0346FB71DB
:103B900097F907301846FFF731FF00BF0837BD46D9
:103BA00080BD80B582B000AF78607868FFF7A2FF73
:103BB000034618460837BD4680BD000080B586B074
:103BC00000AF786000237B61FFF72EFC38617B68D3
:103BD000002B01D1012399E07B68002283F8342077
:103BE0007B68022283F835207B681B681A687B6833
:103BF0001B6822F001021A600FE0FFF715FC024675
:103C00003B69D31A052B08D97B6820225A657B684B
:103C1000032283F83520032378E07B681B681B6848
:103C200003F00103002BE8D17B681B681B687B61F4
:103C30007A69384B13407B617B685A687B689B6864
:103C40001A437B68DB681A437B681B691A437B68ED
:103C50005B691A437B689B691A437B68DB691A437B
:103C60007B681B6A13437A6913437B617B685B6AD9
:103C7000042B07D17B68DA6A7B681B6B13437A6974
:103C800013437B617B681B687A691A607B681B68D9
:103C90005B697B617B6923F007037B617B685B6AFF
:103CA0007A6913437B617B685B6A042B17D17B685D
:103CB0009B6A7A6913437B617B68DB6A002B0ED0B9
:103CC000786800F0E9F90346002B08D07B684022B1
:103CD0005A657B68012283F83520012316E07B6852
:103CE0001B687A695A61786800F0A0F90346FB60A6
:103CF0007B68DB6D3F229A40FB689A607B680022FC
:103D00005A657B68012283F835200023184618374E
:103D1000BD4680BD3F8010F080B586B000AF7860B2
:103D20000023BB608E4B1B688E4AA2FB03239B0AB9
:103D30007B617B689B6D3B613B691B68FB607B68BB
:103D4000DB6D08229A40FB681340002B1AD07B6879
:103D50001B681B6803F00403002B13D07B681B68EF
:103D60001A687B681B6822F004021A607B68DB6DAE
:103D700008229A403B699A607B685B6D43F00102C0
:103D80007B685A657B68DB6D01229A40FB681340B3
:103D9000002B12D07B681B685B6903F08003002B4B
:103DA0000BD07B68DB6D01229A403B699A607B688F
:103DB0005B6D43F002027B685A657B68DB6D042211
:103DC0009A40FB681340002B12D07B681B681B686D
:103DD00003F00203002B0BD07B68DB6D04229A40BA
:103DE0003B699A607B685B6D43F004027B685A65AF
:103DF0007B68DB6D10229A40FB681340002B43D098
:103E00007B681B681B6803F00803002B3CD07B68B1
:103E1000DB6D10229A403B699A607B681B681B68C7
:103E200003F48023002B18D07B681B681B6803F405
:103E30000023002B08D17B681B6C002B24D07B68EF
:103E40001B6C786898471FE07B689B6C002B1BD02D
:103E50007B689B6C7868984716E07B681B681B68DA
:103E600003F48073002B07D17B681B681A687B689A
:103E70001B6822F008021A607B681B6C002B03D0C1
:103E80007B681B6C786898477B68DB6D20229A40C2
:103E9000FB681340002B00F08F807B681B681B6859
:103EA00003F01003002B00F087807B68DB6D20227D
:103EB0009A403B699A607B6893F83530DBB2052BFA
:103EC00036D17B681B681A687B681B6822F0160273
:103ED0001A607B681B685A697B681B6822F0800245
:103EE0005A617B681B6C002B03D17B689B6C002B99
:103EF00007D07B681B681A687B681B6822F0080281
:103F00001A607B68DB6D3F229A403B699A607B6850
:103F1000002283F834207B68012283F835207B68F7
:103F20001B6D002B7ED07B681B6D7868984779E00D
:103F30007B681B681B6803F48023002B1DD07B6803
:103F40001B681B6803F40023002B0DD17B685B6C9E
:103F5000002B31D07B685B6C786898472CE000BF01
:103F600058000020B5814E1B7B68DB6B002B23D0F3
:103F70007B68DB6B786898471EE07B681B681B6872
:103F800003F48073002B0FD17B681B681A687B6871
:103F90001B6822F010021A607B68002283F834202C
:103FA0007B68012283F835207B68DB6B002B03D014
:103FB0007B68DB6B786898477B685B6D002B32D041
:103FC0007B685B6D03F00103002B22D07B68052228
:103FD00083F835207B681B681A687B681B6822F0B1
:103FE00001021A60BB680133BB607A699A4207D349
:103FF0007B681B681B6803F00103002BF2D100E013
:1040000000BF7B68002283F834207B68012283F89C
:1040100035207B68DB6C002B05D07B68DB6C786817
:10402000984700E000BF1837BD4680BD80B485B01A
:1040300000AF78607B681B68DBB2103B134AA2FBC1
:1040400003231B09FB60124AFB6813441B781A46C2
:104050007B68DA65FB68032B08D97B681B681A4606
:104060000C4B13401A1D7B689A6506E07B681B6841
:104070001A46084B13407A6893657B689B6D184617
:104080001437BD465DF8047B704700BFABAAAAAAEF
:10409000F0A9000800FCFFFF80B485B000AF786095
:1040A0000023FB737B689B6ABB607B689B69002B6A
:1040B0001FD1BB68032B56D801A252F823F000BFD2
:1040C000D1400008E3400008D140000867410008E3
:1040D0007B68DB6A03F08073002B46D00123FB73FF
:1040E00043E07B68DB6AB3F1C07F40D10123FB73FF
:1040F0003DE07B689B69B3F5005F21D1BB68032B72
:1041000037D801A252F823F0194100081F410008D6
:1041100019410008314100080123FB7330E07B683E
:10412000DB6A03F08073002B25D00123FB7322E0B0
:104130007B68DB6AB3F1C07F1FD10123FB731CE0F6
:10414000BB68022B03D9BB68032B03D018E0012303
:10415000FB7315E07B68DB6A03F08073002B0ED0E5
:104160000123FB730BE000BF0AE000BF08E000BFC3
:1041700006E000BF04E000BF02E000BF00E000BFB7
:10418000FB7B18461437BD465DF8047B704700BFC3
:1041900080B489B000AF786039600023FB610023F0
:1041A0007B6100233B610023BB610023FB6175E160
:1041B0000122FB6902FA03F37B613B681B687A69A1
:1041C00013403B613A697B699A4240F064813B68E5
:1041D0005B68012B0BD03B685B68022B07D03B6808
:1041E0005B68112B03D03B685B68122B30D17B6876
:1041F0009B68BB61FB695B00032202FA03F3DB43AC
:10420000BA691340BB613B68DA68FB695B0002FA7C
:1042100003F3BA691343BB617B68BA699A607B6830
:104220005B68BB610122FB6902FA03F3DB43BA69F5
:104230001340BB613B685B681B0903F00102FB692B
:1042400002FA03F3BA691343BB617B68BA695A6027
:104250007B68DB68BB61FB695B00032202FA03F346
:10426000DB43BA691340BB613B689A68FB695B003A
:1042700002FA03F3BA691343BB617B68BA69DA6077
:104280003B685B68022B03D03B685B68122B23D131
:10429000FB69DA087B68083253F82230BB61FB699E
:1042A00003F007039B000F2202FA03F3DB43BA6912
:1042B0001340BB613B681A69FB6903F007039B006D
:1042C00002FA03F3BA691343BB61FB69DA087B683E
:1042D0000832B96943F822107B681B68BB61FB692F
:1042E0005B00032202FA03F3DB43BA691340BB61AC
:1042F0003B685B6803F00302FB695B0002FA03F3AF
:10430000BA691343BB617B68BA691A603B685B6832
:1043100003F08053002B00F0BE80664B5B6C654A57
:1043200043F480435364634B5B6C03F48043FB6052
:10433000FB68614AFB699B08023352F82330BB617A
:10434000FB6903F003039B000F2202FA03F3DB4334
:10435000BA691340BB617B68584A934237D07B6887
:10436000574A934231D07B68564A93422BD07B68A0
:10437000554A934225D07B68544A93421FD07B68AC
:10438000534A934219D07B68524A934213D07B68B8
:10439000514A93420DD07B68504A934207D07B68C4
:1043A0004F4A934201D1092312E00A2310E0082367
:1043B0000EE007230CE006230AE0052308E00423AF
:1043C00006E0032304E0022302E0012300E00023CF
:1043D000FA6902F0030292009340BA691343BB6189
:1043E0003549FB699B080233BA6941F823203D4BEC
:1043F0001B68BB613B69DB43BA691340BB613B6827
:104400005B6803F48033002B03D0BA693B69134324
:10441000BB61344ABB691360324B5B68BB613B696B
:10442000DB43BA691340BB613B685B6803F400334C
:10443000002B03D0BA693B691343BB61294ABB69AE
:104440005360284B9B68BB613B69DB43BA691340EF
:10445000BB613B685B6803F48013002B03D0BA692F
:104460003B691343BB611F4ABB6993601D4BDB680B
:10447000BB613B69DB43BA691340BB613B685B6866
:1044800003F40013002B03D0BA693B691343BB61EB
:10449000144ABB69D360FB690133FB61FB690F2BD5
:1044A0007FF686AE00BF00BF2437BD465DF8047BB3
:1044B000704700BF00380240003801400000024051
:1044C0000004024000080240000C024000100240BC
:1044D0000014024000180240001C0240002002406C
:1044E00000240240003C014080B483B000AF7860FB
:1044F0000B467B8013467B707B78002B03D07A8839
:104500007B689A6103E07B881A047B689A6100BF2C
:104510000C37BD465DF8047B7047000080B582B063
:1045200000AF0346FB80084B5A69FB881340002B01
:1045300006D0054AFB885361FB88184600F006F850
:1045400000BF0837BD4680BD003C014080B483B049
:1045500000AF0346FB8000BF0C37BD465DF8047B0F
:104560007047000080B582B000AF78607B68002B98
:1045700001D101237FE07B6893F84130DBB2002B4F
:1045800006D17B68002283F840207868FEF7A0F906
:104590007B68242283F841207B681B681A687B684B
:1045A0001B6822F001021A607B685A687B681B68EE
:1045B00022F070621A617B681B689A687B681B68CE
:1045C00022F400429A607B68DB68012B07D17B688C
:1045D0009A687B681B6842F400429A6006E07B6838
:1045E0009A687B681B6842F404429A607B68DB68C7
:1045F000022B04D17B681B684FF400625A607B6811
:104600001B6859687B681A681D4B0B4353607B68B5
:104610001B68DA687B681B6822F40042DA607B68FA
:104620001A697B685B6942EA03017B689B691A022D
:104630007B681B680A43DA607B68D9697B681A6A01
:104640007B681B680A431A607B681B681A687B6872
:104650001B6842F001021A607B6800225A647B6882
:10466000202283F841207B6800221A637B680022A5
:1046700083F84220002318460837BD4680BD00BF9E
:104680000080000280B588B002AFF8607A601A46F8
:104690000B467B8113463B81FB6893F84130DBB2CC
:1046A000202B40F0DA80FB6893F84030012B01D1D9
:1046B0000223D3E0FB68012283F84020FEF7B4FE1A
:1046C00078617B690093192301224FF40041F86857
:1046D00000F0BCFC0346002B01D00123BEE0FB68C8
:1046E000212283F84120FB68102283F84220FB68D6
:1046F00000225A64FB687A685A62FB683A895A85D4
:10470000FB6800225A63FB685B8D9BB2FF2B0ED9BE
:10471000FB68FF221A85FB681B8DDAB27989514B41
:1047200000934FF08073F86800F01EFE6CE0FB68A9
:104730005B8D9AB2FB681A85FB681B8DDAB27989AA
:10474000484B00934FF00073F86800F00DFE5BE0FB
:104750007A69396AF86800F0B9FC0346002B01D089
:1047600001237BE0FB685B6A1A78FB681B689A622E
:10477000FB685B6A5A1CFB685A62FB685B8D9BB2E4
:10478000013B9AB2FB685A85FB681B8D013B9AB2CC
:10479000FB681A85FB685B8D9BB2002B34D0FB68ED
:1047A0001B8D002B30D17B6900933B6A0022802156
:1047B000F86800F04BFC0346002B01D001234DE0CC
:1047C000FB685B8D9BB2FF2B0ED9FB68FF221A851D
:1047D000FB681B8DDAB27989002300934FF0807358
:1047E000F86800F0C1FD0FE0FB685B8D9AB2FB68D2
:1047F0001A85FB681B8DDAB27989002300934FF08C
:104800000073F86800F0B0FDFB685B8D9BB2002B75
:104810009ED17A69396AF86800F098FC0346002B4B
:1048200001D001231AE0FB681B682022DA61FB68D3
:104830001B685968FB681A680B4B0B405360FB6898
:10484000202283F84120FB68002283F84220FB6885
:10485000002283F84020002300E002231846183786
:10486000BD4680BD0020008000E800FE80B588B015
:1048700002AFF8607A601A460B467B8113463B8193
:10488000FB6893F84130DBB2202B40F0DB80FB6803
:1048900093F84030012B01D10223D4E0FB680122C0
:1048A00083F84020FEF7C0FD78617B6900931923EF
:1048B00001224FF40041F86800F0C8FB0346002BCA
:1048C00001D00123BFE0FB68222283F84120FB686E
:1048D000102283F84220FB6800225A64FB687A6841
:1048E0005A62FB683A895A85FB6800225A63FB6862
:1048F0005B8D9BB2FF2B0ED9FB68FF221A85FB68EC
:104900001B8DDAB27989524B00934FF08073F868AF
:1049100000F02AFD6DE0FB685B8D9AB2FB681A859A
:10492000FB681B8DDAB27989494B00934FF0007315
:10493000F86800F019FD5CE07A69396AF86800F0FF
:1049400041FC0346002B01D001237CE0FB681B687F
:104950005A6AFB685B6AD2B21A70FB685B6A5A1CBF
:10496000FB685A62FB681B8D013B9AB2FB681A8593
:10497000FB685B8D9BB2013B9AB2FB685A85FB6872
:104980005B8D9BB2002B34D0FB681B8D002B30D18C
:104990007B6900933B6A00228021F86800F056FB97
:1049A0000346002B01D001234DE0FB685B8D9BB2D9
:1049B000FF2B0ED9FB68FF221A85FB681B8DDAB22C
:1049C0007989002300934FF08073F86800F0CCFCE5
:1049D0000FE0FB685B8D9AB2FB681A85FB681B8D44
:1049E000DAB27989002300934FF00073F86800F081
:1049F000BBFCFB685B8D9BB2002B9DD17A69396A49
:104A0000F86800F0A3FB0346002B01D001231AE055
:104A1000FB681B682022DA61FB681B685968FB6829
:104A20001A680C4B0B405360FB68202283F841202E
:104A3000FB68002283F84220FB68002283F84020B4
:104A4000002300E0022318461837BD4680BD00BF92
:104A50000024008000E800FE80B588B002AFF86056
:104A6000084611461A4603467B810B463B81134696
:104A7000FB80FB6893F84130DBB2202B40F0F980DB
:104A80003B6A002B02D0BB8C002B05D1FB684FF496
:104A900000725A640123EDE0FB6893F84030012B6B
:104AA00001D10223E6E0FB68012283F84020FEF7F3
:104AB000BBFC78617B690093192301224FF400410C
:104AC000F86800F0C3FA0346002B01D00123D1E0BF
:104AD000FB68212283F84120FB68402283F84220B2
:104AE000FB6800225A64FB683A6A5A62FB68BA8C17
:104AF0005A85FB6800225A63F8883A8979897B696C
:104B00000193BB6A00930346F86800F0D3F90346AB
:104B1000002B05D0FB68002283F840200123A9E088
:104B2000FB685B8D9BB2FF2B0ED9FB68FF221A85B9
:104B3000FB681B8DDAB27989002300934FF08073F4
:104B4000F86800F011FC0FE0FB685B8D9AB2FB681F
:104B50001A85FB681B8DDAB27989002300934FF028
:104B60000073F86800F000FC7A69B96AF86800F030
:104B7000ADFA0346002B01D001237BE0FB685B6AA2
:104B80001A78FB681B689A62FB685B6A5A1CFB68B0
:104B90005A62FB685B8D9BB2013B9AB2FB685A85F7
:104BA000FB681B8D013B9AB2FB681A85FB685B8D25
:104BB0009BB2002B34D0FB681B8D002B30D17B695E
:104BC0000093BB6A00228021F86800F03FFA034698
:104BD000002B01D001234DE0FB685B8D9BB2FF2BC6
:104BE0000ED9FB68FF221A85FB681B8DDAB2798922
:104BF000002300934FF08073F86800F0B5FB0FE0DE
:104C0000FB685B8D9AB2FB681A85FB681B8DDAB274
:104C10007989002300934FF00073F86800F0A4FB3B
:104C2000FB685B8D9BB2002B9ED17A69B96AF868EC
:104C300000F08CFA0346002B01D001231AE0FB6838
:104C40001B682022DA61FB681B685968FB681A68D8
:104C50000A4B0B405360FB68202283F84120FB681D
:104C6000002283F84220FB68002283F840200023C2
:104C700000E0022318461837BD4680BD00E800FE5C
:104C800080B588B002AFF860084611461A46034660
:104C90007B810B463B811346FB80FB6893F84130D8
:104CA000DBB2202B40F0FD803B6A002B02D0BB8C96
:104CB000002B05D1FB684FF400725A640123F1E028
:104CC000FB6893F84030012B01D10223EAE0FB6836
:104CD000012283F84020FEF7A7FB78617B690093EF
:104CE000192301224FF40041F86800F0AFF90346A0
:104CF000002B01D00123D5E0FB68222283F841205C
:104D0000FB68402283F84220FB6800225A64FB685B
:104D10003A6A5A62FB68BA8C5A85FB6800225A6369
:104D2000F8883A8979897B690193BB6A00930346C5
:104D3000F86800F013F90346002B05D0FB68002249
:104D400083F840200123ADE0FB685B8D9BB2FF2B15
:104D50000ED9FB68FF221A85FB681B8DDAB27989B0
:104D6000524B00934FF08073F86800F0FDFA0FE0AB
:104D7000FB685B8D9AB2FB681A85FB681B8DDAB203
:104D800079894A4B00934FF00073F86800F0ECFA11
:104D90007B690093BB6A00220421F86800F056F991
:104DA0000346002B01D001237CE0FB681B685A6A94
:104DB000FB685B6AD2B21A70FB685B6A5A1CFB68BC
:104DC0005A62FB681B8D013B9AB2FB681A85FB682F
:104DD0005B8D9BB2013B9AB2FB685A85FB685B8D89
:104DE0009BB2002B34D0FB681B8D002B30D17B692C
:104DF0000093BB6A00228021F86800F027F903467F
:104E0000002B01D001234DE0FB685B8D9BB2FF2B93
:104E10000ED9FB68FF221A85FB681B8DDAB27989EF
:104E2000002300934FF08073F86800F09DFA0FE0C4
:104E3000FB685B8D9AB2FB681A85FB681B8DDAB242
:104E40007989002300934FF00073F86800F08CFA22
:104E5000FB685B8D9BB2002B9AD17A69B96AF868BE
:104E600000F074F90346002B01D001231AE0FB681F
:104E70001B682022DA61FB681B685968FB681A68A6
:104E80000B4B0B405360FB68202283F84120FB68EA
:104E9000002283F84220FB68002283F84020002390
:104EA00000E0022318461837BD4680BD002400806C
:104EB00000E800FE80B586B002AFF86008461146F3
:104EC0001A4603467B810B463B811346FB80FB88D9
:104ED000DAB27989204B00934FF08073F86800F0C4
:104EE00043FAFA69B969F86800F0F0F80346002B54
:104EF00001D001232CE0FB88012B05D13B89DAB2DC
:104F0000FB681B689A6215E03B891B0A9BB2DAB208
:104F1000FB681B689A62FA69B969F86800F0D6F80C
:104F20000346002B01D0012312E03B89DAB2FB6873
:104F30001B689A62FB690093BB6900228021F868B4
:104F400000F084F80346002B01D0012300E0002389
:104F500018461037BD4680BD0020008080B586B061
:104F600002AFF860084611461A4603467B810B469D
:104F70003B811346FB80FB88DAB27989204B009392
:104F80000023F86800F0F0F9FA69B969F86800F0F0
:104F90009DF80346002B01D001232CE0FB88012B58
:104FA00005D13B89DAB2FB681B689A6215E03B8940
:104FB0001B0A9BB2DAB2FB681B689A62FA69B9698C
:104FC000F86800F083F80346002B01D0012312E0BB
:104FD0003B89DAB2FB681B689A62FB690093BB6984
:104FE00000224021F86800F031F80346002B01D080
:104FF000012300E0002318461037BD4680BD00BFE6
:105000000020008080B483B000AF78607B681B68AC
:105010009B6903F00203022B03D17B681B6800220B
:105020009A627B681B689B6903F00103012B07D020
:105030007B681B689A697B681B6842F001029A6171
:1050400000BF0C37BD465DF8047B704780B584B067
:1050500000AFF860B9603B601346FB7122E03B682B
:10506000B3F1FF3F1ED0FEF7DFF90246BB69D31A4A
:105070003A689A4202D33B68002B13D1FB685B6C01
:1050800043F02002FB685A64FB68202283F8412029
:10509000FB68002283F84220FB68002283F840204E
:1050A00001230FE0FB681B689A69BB681340BA686C
:1050B0009A420CBF01230023DBB21A46FB799A42C5
:1050C000CDD0002318461037BD4680BD80B584B0D2
:1050D00000AFF860B9607A602CE07A68B968F86867
:1050E00000F0DCF80346002B01D001232AE0BB6866
:1050F000B3F1FF3F1ED0FEF797F902467B68D31A43
:10510000BA689A4202D3BB68002B13D1FB685B6C70
:1051100043F02002FB685A64FB68202283F8412098
:10512000FB68002283F84220FB68002283F84020BD
:10513000012307E0FB681B689B6903F00203022B55
:10514000CBD1002318461037BD4680BD80B584B052
:1051500000AFF860B9607A6028E07A68B968F868EA
:1051600000F09CF80346002B01D0012326E0FEF757
:105170005BF902467B68D31ABA689A4202D3BB68CD
:10518000002B13D1FB685B6C43F02002FB685A6470
:10519000FB68202283F84120FB68002283F842202C
:1051A000FB68002283F84020012307E0FB681B68AE
:1051B0009B6903F02003202BCFD100231846103722
:1051C000BD4680BD80B584B000AFF860B9607A603C
:1051D00055E07A68B968F86800F060F80346002B7B
:1051E00001D0012353E0FB681B689B6903F0200397
:1051F000202B29D1FB681B689B6903F00403042B57
:1052000005D1FB681B8D002B01D000233FE0FB681C
:105210001B682022DA61FB681B685968FB681A6802
:105220001D4B0B405360FB6800225A64FB68202230
:1052300083F84120FB68002283F84220FB680022AB
:1052400083F84020012322E0FEF7EEF802467B6857
:10525000D31ABA689A4202D3BB68002B0FD1FB68FD
:105260005B6C43F02002FB685A64FB68202283F8E1
:105270004120FB68002283F84020012307E0FB68FF
:105280001B689B6903F00403042BA2D1002318467A
:105290001037BD4680BD00BF00E800FE80B584B079
:1052A00000AFF860B9607A60FB681B689B6903F027
:1052B0001003102B51D122E0BB68B3F1FF3F1ED089
:1052C000FEF7B2F802467B68D31ABA689A4202D354
:1052D000BB68002B13D1FB685B6C43F02002FB68BA
:1052E0005A64FB68202283F84120FB68002283F87F
:1052F0004220FB68002283F8402001232EE0FB6857
:105300001B689B6903F02003202BD5D1FB681B6829
:105310001022DA61FB681B682022DA61F868FFF767
:1053200071FEFB681B685968FB681A680D4B0B40DF
:105330005360FB685B6C43F00402FB685A64FB68D3
:10534000202283F84120FB68002283F84220FB687A
:10535000002283F84020012300E000231846103784
:10536000BD4680BD00E800FE80B485B000AFF860A7
:105370007B600B467B8113467B72FB681B685A6817
:10538000BB695B0D03F480610D4B0B43DB4302EA09
:1053900003017B89C3F309027B7A1B0403F47F03B7
:1053A0001A437B681A43BB691A43FB681B680A43AC
:1053B0005A6000BF1437BD465DF8047B704700BFDC
:1053C000FF63FF0380B483B000AF786039607B680F
:1053D00093F84130DBB2202B38D17B6893F8403012
:1053E000012B01D1022332E07B68012283F84020A7
:1053F0007B68242283F841207B681B681A687B68DD
:105400001B6822F001021A607B681B681A687B68BF
:105410001B6822F480521A607B681B6819687B68DD
:105420001B683A680A431A607B681B681A687B68C5
:105430001B6842F001021A607B68202283F8412039
:105440007B68002283F84020002300E002231846F6
:105450000C37BD465DF8047B704780B485B000AF63
:10546000786039607B6893F84130DBB2202B39D10A
:105470007B6893F84030012B01D1022333E07B6835
:10548000012283F840207B68242283F841207B6836
:105490001B681A687B681B6822F001021A607B682F
:1054A0001B681B68FB60FB6823F47063FB603B6850
:1054B0001B02FA681343FB607B681B68FA681A607A
:1054C0007B681B681A687B681B6842F001021A60DF
:1054D0007B68202283F841207B68002283F84020EB
:1054E000002300E0022318461437BD465DF8047B14
:1054F0007047000080B586B000AF78600023FB7570
:105500007B68002B01D1012391E27B681B6803F0CB
:105510000103002B00F08780964B9B6803F00C037F
:10552000042B0CD0934B9B6803F00C03082B12D177
:10553000904B5B6803F48003B3F5800F0BD18D4B68
:105540001B6803F40033002B6CD07B685B68002B76
:1055500068D101236BE27B685B68B3F5803F06D1BD
:10556000844B1B68834A43F4803313602EE07B68CE
:105570005B68002B0CD17F4B1B687E4A23F4803381
:1055800013607C4B1B687B4A23F4802313601DE06F
:105590007B685B68B3F5A02F0CD1764B1B68754A0E
:1055A00043F480231360734B1B68724A43F48033C7
:1055B00013600BE06F4B1B686E4A23F4803313605B
:1055C0006C4B1B686B4A23F4802313607B685B6819
:1055D000002B13D0FDF728FF386108E0FDF724FF0A
:1055E00002463B69D31A642B01D903231FE2614BA6
:1055F0001B6803F40033002BF0D014E0FDF714FF18
:10560000386108E0FDF710FF02463B69D31A642BAE
:1056100001D903230BE2574B1B6803F40033002B23
:10562000F0D100E000BF7B681B6803F00203002B91
:1056300069D0504B9B6803F00C03002B0BD04D4BF3
:105640009B6803F00C03082B1CD14A4B5B6803F4E6
:105650008003002B16D1474B1B6803F00203002B7D
:1056600005D07B68DB68012B01D00123DFE1414BD2
:105670001B6823F0F8027B681B69DB003D4913437C
:105680000B6040E07B68DB68002B23D0394B1B6844
:10569000384A43F001031360FDF7C6FE386108E0A5
:1056A000FDF7C2FE02463B69D31A022B01D9032340
:1056B000BDE1304B1B6803F00203002BF0D02D4BF3
:1056C0001B6823F0F8027B681B69DB002949134340
:1056D0000B6018E0274B1B68264A23F00103136078
:1056E000FDF7A2FE386108E0FDF79EFE02463B6929
:1056F000D31A022B01D9032399E11E4B1B6803F037
:105700000203002BF0D17B681B6803F00803002B19
:1057100038D07B685B69002B19D0164B5B6F154A3C
:1057200043F001035367FDF77FFE386108E0FDF7A2
:105730007BFE02463B69D31A022B01D9032376E193
:105740000C4B5B6F03F00203002BF0D01AE0094B07
:105750005B6F084A23F001035367FDF765FE38616C
:105760000AE0FDF761FE02463B69D31A022B03D91A
:1057700003235CE100380240914B5B6F03F00203AE
:10578000002BEED17B681B6803F00403002B00F0B4
:10579000A4808B4B1B6C03F08053002B0DD1884BE6
:1057A0001B6C874A43F080531364854B1B6C03F0DA
:1057B0008053BB60BB680123FB75824B1B6803F4FD
:1057C0008073002B18D17F4B1B687E4A43F4807393
:1057D0001360FDF729FE386108E0FDF725FE02465B
:1057E0003B69D31A642B01D9032320E1754B1B6855
:1057F00003F48073002BF0D07B689B68012B06D1EB
:105800006F4B1B6F6E4A43F0010313672DE07B68FB
:105810009B68002B0CD16A4B1B6F694A23F0010374
:105820001367674B1B6F664A23F0040313671CE082
:105830007B689B68052B0CD1614B1B6F604A43F062
:10584000040313675E4B1B6F5D4A43F0010313674C
:105850000BE05B4B1B6F5A4A23F001031367584B55
:105860001B6F574A23F0040313677B689B68002B68
:1058700015D0FDF7D9FD38610AE0FDF7D5FD0246E8
:105880003B69D31A41F28832934201D90323CEE017
:105890004B4B1B6F03F00203002BEED014E0FDF71F
:1058A000C3FD38610AE0FDF7BFFD02463B69D31A2C
:1058B00041F28832934201D90323B8E0404B1B6F79
:1058C00003F00203002BEED1FB7D012B05D13C4BF5
:1058D0001B6C3B4A23F0805313647B689B69002B4D
:1058E00000F0A480364B9B6803F00C03082B6BD0B0
:1058F0007B689B69022B49D1314B1B68304A23F0EE
:1059000080731360FDF790FD386108E0FDF78CFDB2
:1059100002463B69D31A022B01D9032387E0284BA7
:105920001B6803F00073002BF0D17B68DA697B6899
:105930001B6A1A437B685B6A9B011A437B689B6AFC
:105940005B08013B1B041A437B68DB6A1B0613439D
:105950001B4A43F000535360194B1B68184A43F02D
:1059600080731360FDF760FD386108E0FDF75CFDB2
:1059700002463B69D31A022B01D9032357E0104B8F
:105980001B6803F00073002BF0D04FE00C4B1B683A
:105990000B4A23F080731360FDF746FD386108E081
:1059A000FDF742FD02463B69D31A022B01D90323BE
:1059B0003DE0034B1B6803F00073002BF0D135E092
:1059C00000380240007000401B4B5B68FB607B6846
:1059D0009B69012B28D0FB6803F480027B68DB699C
:1059E0009A4221D1FB6803F03F027B681B6A9A420E
:1059F0001AD1FA6847F6C07313407A68526A920166
:105A0000934211D1FB6803F440327B689B6A5B08C8
:105A1000013B1B049A4207D1FB6803F070627B686C
:105A2000DB6A1B069A4201D0012300E000231846DE
:105A30001837BD4680BD00BF0038024080B584B035
:105A400000AF786039600023FB607B68002B01D1D8
:105A50000123D0E06A4B1B6803F00F033A689A42B7
:105A600010D9674B1B6823F00F0265493B6813434D
:105A70000B60634B1B6803F00F033A689A4201D036
:105A80000123B8E07B681B6803F00203002B20D0E1
:105A90007B681B6803F00403002B05D0594B9B68FF
:105AA000584A43F4E05393607B681B6803F0080393
:105AB000002B05D0534B9B68524A43F460439360DC
:105AC000504B9B6823F0F0027B689B684D49134361
:105AD0008B607B681B6803F00103002B40D07B6860
